:1000000075807F7F2090009579201146117FDFF564
:100010007F2090009D79181146117FDFF57F209099
:1000200000A579101146117FDFF57F209000AD7992
:10003000081146117FDFF57F2090009D7918114649
:10004000117FDFF580BD7800E993F58009B91002D2
:100050008013E893FE116608B809028008117F7EBC
:1000600000116680E322C2B6C2B5EE7D083392B4B9
:10007000D2B60000C2B6DDF5D2B50000C2B5227B13
:10008000047CFFDCFEDBFA2279047BFF7CFFDCFED4
:10009000DBFAD9F62200FF18244281000000FF910C
:1000A0009191919100007F909090907F0000FF408F
:0D00B000300C02FF007FBFDFEFF7FBFDFE0D
:00000001FF
